{
  "_format": "hh-sol-artifact-1",
  "contractName": "EtherLinks",
  "sourceName": "contracts/EtherLinks.sol",
  "abi": [
    {
      "inputs": [],
      "stateMutability": "payable",
      "type": "constructor"
    },
    {
      "inputs": [
        {
          "internalType": "address",
          "name": "_addr",
          "type": "address"
        }
      ],
      "name": "getLinks",
      "outputs": [
        {
          "components": [
            {
              "internalType": "string[]",
              "name": "url",
              "type": "string[]"
            },
            {
              "internalType": "string[]",
              "name": "icon",
              "type": "string[]"
            },
            {
              "internalType": "string[]",
              "name": "text",
              "type": "string[]"
            }
          ],
          "internalType": "struct EtherLinks.Link",
          "name": "",
          "type": "tuple"
        }
      ],
      "stateMutability": "view",
      "type": "function"
    },
    {
      "inputs": [
        {
          "internalType": "address",
          "name": "_addr",
          "type": "address"
        }
      ],
      "name": "getProfile",
      "outputs": [
        {
          "components": [
            {
              "internalType": "address",
              "name": "profile",
              "type": "address"
            },
            {
              "internalType": "uint256",
              "name": "timestamp",
              "type": "uint256"
            },
            {
              "internalType": "string",
              "name": "logo",
              "type": "string"
            },
            {
              "internalType": "string",
              "name": "header",
              "type": "string"
            },
            {
              "internalType": "string",
              "name": "paragraph",
              "type": "string"
            }
          ],
          "internalType": "struct EtherLinks.Profile",
          "name": "",
          "type": "tuple"
        }
      ],
      "stateMutability": "view",
      "type": "function"
    },
    {
      "inputs": [
        {
          "components": [
            {
              "internalType": "string[]",
              "name": "url",
              "type": "string[]"
            },
            {
              "internalType": "string[]",
              "name": "icon",
              "type": "string[]"
            },
            {
              "internalType": "string[]",
              "name": "text",
              "type": "string[]"
            }
          ],
          "internalType": "struct EtherLinks.Link",
          "name": "_link",
          "type": "tuple"
        }
      ],
      "name": "setLinks",
      "outputs": [],
      "stateMutability": "nonpayable",
      "type": "function"
    },
    {
      "inputs": [
        {
          "components": [
            {
              "internalType": "string",
              "name": "logo",
              "type": "string"
            },
            {
              "internalType": "string",
              "name": "header",
              "type": "string"
            },
            {
              "internalType": "string",
              "name": "paragraph",
              "type": "string"
            }
          ],
          "internalType": "struct EtherLinks.ProfileInput",
          "name": "_profile",
          "type": "tuple"
        }
      ],
      "name": "setProfile",
      "outputs": [],
      "stateMutability": "nonpayable",
      "type": "function"
    }
  ],
  "bytecode": "0x6080604052600367ffffffffffffffff811115620000225762000021620002a0565b5b6040519080825280602002602001820160405280156200005757816020015b6060815260200190600190039081620000415790505b50600190805190602001906200006f929190620000b6565b50336000806101000a81548173ffffffffffffffffffffffffffffffffffffffff021916908373ffffffffffffffffffffffffffffffffffffffff160217905550620002cf565b8280548282559060005260206000209081019282156200010a579160200282015b8281111562000109578251829080519060200190620000f89291906200011d565b5091602001919060010190620000d7565b5b509050620001199190620001ae565b5090565b8280546200012b906200023b565b90600052602060002090601f0160209004810192826200014f57600085556200019b565b82601f106200016a57805160ff19168380011785556200019b565b828001600101855582156200019b579182015b828111156200019a5782518255916020019190600101906200017d565b5b509050620001aa9190620001d6565b5090565b5b80821115620001d25760008181620001c89190620001f5565b50600101620001af565b5090565b5b80821115620001f1576000816000905550600101620001d7565b5090565b50805462000203906200023b565b6000825580601f1062000217575062000238565b601f016020900490600052602060002090810190620002379190620001d6565b5b50565b600060028204905060018216806200025457607f821691505b602082108114156200026b576200026a62000271565b5b50919050565b7f4e487b7100000000000000000000000000000000000000000000000000000000600052602260045260246000fd5b7f4e487b7100000000000000000000000000000000000000000000000000000000600052604160045260246000fd5b61130680620002df6000396000f3fe608060405234801561001057600080fd5b506004361061004c5760003560e01c80630f53a4701461005157806313569307146100815780634b9d86241461009d578063de8ab714146100cd575b600080fd5b61006b60048036038101906100669190610daa565b6100e9565b604051610078919061104d565b60405180910390f35b61009b60048036038101906100969190610e20565b610358565b005b6100b760048036038101906100b29190610daa565b610534565b6040516100c4919061102b565b60405180910390f35b6100e760048036038101906100e29190610dd7565b610818565b005b6100f161092c565b600b60008373ffffffffffffffffffffffffffffffffffffffff1673ffffffffffffffffffffffffffffffffffffffff1681526020019081526020016000206040518060a00160405290816000820160009054906101000a900473ffffffffffffffffffffffffffffffffffffffff1673ffffffffffffffffffffffffffffffffffffffff1673ffffffffffffffffffffffffffffffffffffffff168152602001600182015481526020016002820180546101ab906111c4565b80601f01602080910402602001604051908101604052809291908181526020018280546101d7906111c4565b80156102245780601f106101f957610100808354040283529160200191610224565b820191906000526020600020905b81548152906001019060200180831161020757829003601f168201915b5050505050815260200160038201805461023d906111c4565b80601f0160208091040260200160405190810160405280929190818152602001828054610269906111c4565b80156102b65780601f1061028b576101008083540402835291602001916102b6565b820191906000526020600020905b81548152906001019060200180831161029957829003601f168201915b505050505081526020016004820180546102cf906111c4565b80601f01602080910402602001604051908101604052809291908181526020018280546102fb906111c4565b80156103485780601f1061031d57610100808354040283529160200191610348565b820191906000526020600020905b81548152906001019060200180831161032b57829003601f168201915b5050505050815250509050919050565b33600b60003373ffffffffffffffffffffffffffffffffffffffff1673ffffffffffffffffffffffffffffffffffffffff16815260200190815260200160002060000160006101000a81548173ffffffffffffffffffffffffffffffffffffffff021916908373ffffffffffffffffffffffffffffffffffffffff16021790555042600b60003373ffffffffffffffffffffffffffffffffffffffff1673ffffffffffffffffffffffffffffffffffffffff168152602001908152602001600020600101819055508060000151600b60003373ffffffffffffffffffffffffffffffffffffffff1673ffffffffffffffffffffffffffffffffffffffff168152602001908152602001600020600201908051906020019061047a929190610971565b508060200151600b60003373ffffffffffffffffffffffffffffffffffffffff1673ffffffffffffffffffffffffffffffffffffffff16815260200190815260200160002060030190805190602001906104d5929190610971565b508060400151600b60003373ffffffffffffffffffffffffffffffffffffffff1673ffffffffffffffffffffffffffffffffffffffff1681526020019081526020016000206004019080519060200190610530929190610971565b5050565b61053c6109f7565b600c60008373ffffffffffffffffffffffffffffffffffffffff1673ffffffffffffffffffffffffffffffffffffffff16815260200190815260200160002060405180606001604052908160008201805480602002602001604051908101604052809291908181526020016000905b828210156106575783829060005260206000200180546105ca906111c4565b80601f01602080910402602001604051908101604052809291908181526020018280546105f6906111c4565b80156106435780601f1061061857610100808354040283529160200191610643565b820191906000526020600020905b81548152906001019060200180831161062657829003601f168201915b5050505050815260200190600101906105ab565b50505050815260200160018201805480602002602001604051908101604052809291908181526020016000905b828210156107305783829060005260206000200180546106a3906111c4565b80601f01602080910402602001604051908101604052809291908181526020018280546106cf906111c4565b801561071c5780601f106106f15761010080835404028352916020019161071c565b820191906000526020600020905b8154815290600101906020018083116106ff57829003601f168201915b505050505081526020019060010190610684565b50505050815260200160028201805480602002602001604051908101604052809291908181526020016000905b8282101561080957838290600052602060002001805461077c906111c4565b80601f01602080910402602001604051908101604052809291908181526020018280546107a8906111c4565b80156107f55780601f106107ca576101008083540402835291602001916107f5565b820191906000526020600020905b8154815290600101906020018083116107d857829003601f168201915b50505050508152602001906001019061075d565b50505050815250509050919050565b8060000151600c60003373ffffffffffffffffffffffffffffffffffffffff1673ffffffffffffffffffffffffffffffffffffffff1681526020019081526020016000206000019080519060200190610872929190610a18565b508060200151600c60003373ffffffffffffffffffffffffffffffffffffffff1673ffffffffffffffffffffffffffffffffffffffff16815260200190815260200160002060010190805190602001906108cd929190610a18565b508060400151600c60003373ffffffffffffffffffffffffffffffffffffffff1673ffffffffffffffffffffffffffffffffffffffff1681526020019081526020016000206002019080519060200190610928929190610a18565b5050565b6040518060a00160405280600073ffffffffffffffffffffffffffffffffffffffff168152602001600081526020016060815260200160608152602001606081525090565b82805461097d906111c4565b90600052602060002090601f01602090048101928261099f57600085556109e6565b82601f106109b857805160ff19168380011785556109e6565b828001600101855582156109e6579182015b828111156109e55782518255916020019190600101906109ca565b5b5090506109f39190610a78565b5090565b60405180606001604052806060815260200160608152602001606081525090565b828054828255906000526020600020908101928215610a67579160200282015b82811115610a66578251829080519060200190610a56929190610971565b5091602001919060010190610a38565b5b509050610a749190610a95565b5090565b5b80821115610a91576000816000905550600101610a79565b5090565b5b80821115610ab55760008181610aac9190610ab9565b50600101610a96565b5090565b508054610ac5906111c4565b6000825580601f10610ad75750610af6565b601f016020900490600052602060002090810190610af59190610a78565b5b50565b6000610b0c610b0784611094565b61106f565b90508083825260208201905082856020860282011115610b2f57610b2e611294565b5b60005b85811015610b7d57813567ffffffffffffffff811115610b5557610b54611285565b5b808601610b628982610c0c565b85526020850194506020840193505050600181019050610b32565b5050509392505050565b6000610b9a610b95846110c0565b61106f565b905082815260208101848484011115610bb657610bb5611299565b5b610bc1848285611182565b509392505050565b600081359050610bd8816112b9565b92915050565b600082601f830112610bf357610bf2611285565b5b8135610c03848260208601610af9565b91505092915050565b600082601f830112610c2157610c20611285565b5b8135610c31848260208601610b87565b91505092915050565b600060608284031215610c5057610c4f61128a565b5b610c5a606061106f565b9050600082013567ffffffffffffffff811115610c7a57610c7961128f565b5b610c8684828501610bde565b600083015250602082013567ffffffffffffffff811115610caa57610ca961128f565b5b610cb684828501610bde565b602083015250604082013567ffffffffffffffff811115610cda57610cd961128f565b5b610ce684828501610bde565b60408301525092915050565b600060608284031215610d0857610d0761128a565b5b610d12606061106f565b9050600082013567ffffffffffffffff811115610d3257610d3161128f565b5b610d3e84828501610c0c565b600083015250602082013567ffffffffffffffff811115610d6257610d6161128f565b5b610d6e84828501610c0c565b602083015250604082013567ffffffffffffffff811115610d9257610d9161128f565b5b610d9e84828501610c0c565b60408301525092915050565b600060208284031215610dc057610dbf6112a3565b5b6000610dce84828501610bc9565b91505092915050565b600060208284031215610ded57610dec6112a3565b5b600082013567ffffffffffffffff811115610e0b57610e0a61129e565b5b610e1784828501610c3a565b91505092915050565b600060208284031215610e3657610e356112a3565b5b600082013567ffffffffffffffff811115610e5457610e5361129e565b5b610e6084828501610cf2565b91505092915050565b6000610e758383610f01565b905092915050565b610e8681611146565b82525050565b6000610e9782611101565b610ea18185611124565b935083602082028501610eb3856110f1565b8060005b85811015610eef5784840389528151610ed08582610e69565b9450610edb83611117565b925060208a01995050600181019050610eb7565b50829750879550505050505092915050565b6000610f0c8261110c565b610f168185611135565b9350610f26818560208601611191565b610f2f816112a8565b840191505092915050565b60006060830160008301518482036000860152610f578282610e8c565b91505060208301518482036020860152610f718282610e8c565b91505060408301518482036040860152610f8b8282610e8c565b9150508091505092915050565b600060a083016000830151610fb06000860182610e7d565b506020830151610fc3602086018261101c565b5060408301518482036040860152610fdb8282610f01565b91505060608301518482036060860152610ff58282610f01565b9150506080830151848203608086015261100f8282610f01565b9150508091505092915050565b61102581611178565b82525050565b600060208201905081810360008301526110458184610f3a565b905092915050565b600060208201905081810360008301526110678184610f98565b905092915050565b600061107961108a565b905061108582826111f6565b919050565b6000604051905090565b600067ffffffffffffffff8211156110af576110ae611256565b5b602082029050602081019050919050565b600067ffffffffffffffff8211156110db576110da611256565b5b6110e4826112a8565b9050602081019050919050565b6000819050602082019050919050565b600081519050919050565b600081519050919050565b6000602082019050919050565b600082825260208201905092915050565b600082825260208201905092915050565b600061115182611158565b9050919050565b600073ffffffffffffffffffffffffffffffffffffffff82169050919050565b6000819050919050565b82818337600083830152505050565b60005b838110156111af578082015181840152602081019050611194565b838111156111be576000848401525b50505050565b600060028204905060018216806111dc57607f821691505b602082108114156111f0576111ef611227565b5b50919050565b6111ff826112a8565b810181811067ffffffffffffffff8211171561121e5761121d611256565b5b80604052505050565b7f4e487b7100000000000000000000000000000000000000000000000000000000600052602260045260246000fd5b7f4e487b7100000000000000000000000000000000000000000000000000000000600052604160045260246000fd5b600080fd5b600080fd5b600080fd5b600080fd5b600080fd5b600080fd5b600080fd5b6000601f19601f8301169050919050565b6112c281611146565b81146112cd57600080fd5b5056fea2646970667358221220ab66445f006d2a562b296538c494f0cf3b69adb5502139fd7efc70ce0bb091d564736f6c63430008070033",
  "linkReferences": {},
  "deployedLinkReferences": {}
}